:020000040800F2
:10000000D004002049010008E9180008C1170008C1
:10001000E518000811020008A51A000800000000F9
:100020000000000000000000000000001919000896
:100030002502000800000000ED1800081B19000848
:100040006301000863010008630100086301000800
:1000500063010008630100086301000863010008F0
:10006000630100086301000863010008150200082D
:1000700063010008630100086301000863010008D0
:1000800063010008630100086301000863010008C0
:1000900063010008630100086301000863010008B0
:1000A00063010008630100086301000863010008A0
:1000B0006301000863010008630100086301000890
:1000C0006301000863010008630100086301000880
:1000D0006301000863010008630100086301000870
:1000E0006301000863010008630100086301000860
:1000F0006301000863010008630100086301000850
:10010000630100086301000863010008630100083F
:10011000630100086301000863010008630100082F
:10012000630100086301000863010008630100081F
:10013000DFF810D000F02CF800480047FF1A000844
:10014000AFF30080D00400200648804706480047EF
:10015000FEE7FEE7FEE7FEE7FEE7FEE7FEE7FEE777
:10016000FEE7FEE7A519000831010008D2B201E060
:1001700000F8012B491EFBD270470022F6E710B5AC
:1001800013460A4604461946FFF7F0FF204610BD05
:10019000064C074D06E0E06840F0010394E80700D4
:1001A00098471034AC42F6D3FFF7C6FF441B000853
:1001B000641B000870B5044600252068806800F0C4
:1001C000010018B32068806820F001002168886071
:1001D00000F096FD054613E000F092FD401B02285A
:1001E0000ED92068806800F0010048B1A06A40F094
:1001F0001000A062E06A40F00100E062012070BDE2
:100200002068806800F001000028E5D10020F6E7B2
:1002100000BFFEE710B5024800F0C0F910BD0000B5
:1002200040000020704772B600BFFEE738B50246B6
:1002300000230020009000BF92F82400012801D183
:10024000022038BD012082F8240000BF486807283A
:1002500012D21068406B0C79641E04EB84051F24D5
:10026000AC40A0430D796D1E05EB85050C68AC40D4
:1002700020431468606327E048680D2812D2106894
:10028000006B0C79E41F04EB84051F24AC40A043F1
:100290000D79ED1F05EB85050C68AC402043146813
:1002A000206311E01068C06A0C790D3C04EB8405F2
:1002B0001F24AC40A0430D790D3D05EB85050C686E
:1002C000AC4020431468E06208680A2812D3106822
:1002D000C0680C780A3C04EB44050724AC40A043FA
:1002E0000D780A3D05EB45058C68AC402043146849
:1002F000E0600FE0106800690C7804EB4405072407
:10030000AC40A0430D7805EB45058C68AC4020431C
:10031000146820610868102802D00868112827D1C5
:10032000174C1068A0421ED11068806800F40000CD
:10033000F0B91068806840F400001468A060086894
:10034000102815D10F4800680F4CB0FBF4F000EBFB
:1003500080004000009002E00098401E009000984D
:100360000028F9D104E0906A40F020009062012357
:1003700000BF002082F8240000BF184661E700009B
:10038000002401400C00002040420F002DE9F04104
:100390000446002700250026A84614B90120BDE820
:1003A000F081A06810B1207D00B100BFA06A30B913
:1003B0000020E06284F82400204600F097F82046F0
:1003C000FFF7F8FE0746A06A00F01000002873D17E
:1003D000002F7ED1A06A20F4885040F00200A06275
:1003E0003F4AD4E90001904208D1E069B0F5402FBE
:1003F00002D14FF4002002E0E06900E0E06901432F
:10040000207B41EA40000643A068B0F5807F02D01F
:10041000A068012802D14FF4807000E0002005435D
:10042000207D012811D1207B38B9A069401E4FF4EE
:10043000006141EA4030054307E0A06A40F0200037
:10044000A062E06A40F00100E0622068406820F4A9
:100450006940284321684860206880682149084035
:10046000304321688860A068B0F5807F02D0A06822
:10047000012802D14FF4807000E00020B0F5807FA9
:1004800003D1208A401E4FEA00582068C06A20F439
:10049000700040EA08002168C8622068806812493C
:1004A0000840B04209D10020E062A06A20F00200BA
:1004B00040F00100A06211E00BE0A06A20F0020011
:1004C00040F01000A062E06A40F00100E062012705
:1004D00004E0A06A40F01000A062012738465EE701
:1004E000003C0140FDF7E1FFFE0E1FFF10B586B096
:1004F0000446002002900390049005902249206851
:1005000088423ED100BF2148806940F400701F49F5
:1005100088610846806900F40070019000BF00BF48
:1005200000BF0846806940F0100088610846806975
:1005300000F01000019000BF00BF052002900320D2
:10054000039002A9124800F03BFA124812490860D1
:10055000002048600021104881608021C16049006E
:10056000016189004161202181610902C16100F0BE
:10057000E1F908B1FFF757FE00BF07482062446267
:1005800000BF06B010BD0000002401400010024072
:1005900000100140080002404000002070B50446F1
:1005A000E06B05682068066894F8401004208840D5
:1005B0002840002875D006F004000028FAD02068F2
:1005C000006800F0200028B92068006820F00400CE
:1005D00021680860D5492068884254D9D3497839C0
:1005E0002068884201D1042049E0D049643920685C
:1005F000884201D1402042E0CC49503920688842ED
:1006000001D100153BE0C9493C392068884202D13C
:100610004FF4804033E0C54928392068884202D130
:100620004FF480202BE0C14914392068884202D160
:100630004FF4800023E0BD492068884201D1C00406
:100640001DE0BB492068884201D1042017E0B84969
:1006500014312068884201D1402010E0B44928318B
:100660002068884201D1001509E0B1493C31206879
:10067000884202D14FF4804001E04FF48020AC4921
:10068000091F086054E0A94978392068884201D1DF
:1006900004204AE0A54964392068884202D14020FC
:1006A00043E04CE0A14950392068884201D100154F
:1006B0003BE09E493C392068884202D14FF480409B
:1006C00033E09A4928392068884202D14FF48020CB
:1006D0002BE0964914392068884202D14FF48000FB
:1006E00023E092492068884201D1C0041DE090496E
:1006F0002068884201D1042017E08D491431206818
:10070000884201D1402010E0894928312068884280
:1007100001D1001509E086493C312068884202D1A8
:100720004FF4804001E04FF48020804980394860D8
:10073000E06A002802D02046E16A8847F4E094F895
:100740004010022088402840002871D006F00200A6
:100750000028FAD02068006800F0200040B9206826
:10076000006820F00A0021680860012084F8210058
:100770006E492068884254D96C497839206888428B
:1007800001D1022049E0694964392068884201D1D9
:10079000202042E0654950392068884201D1401547
:1007A0003BE062493C392068884202D14FF4005056
:1007B00033E05E4928392068884202D14FF4003086
:1007C0002BE05A4914392068884202D14FF40010B6
:1007D00023E056492068884201D180041DE0544935
:1007E0002068884201D1022017E051491431206865
:1007F000884201D1202010E04D49283120688842EC
:1008000001D1401509E04A493C312068884202D1B3
:100810004FF4005001E04FF400304549091F0860D3
:1008200054E0424978392068884202D102204AE0E7
:1008300057E03E4964392068884201D1202042E0D7
:100840003A4950392068884201D140153BE0374988
:100850003C392068884202D14FF4005033E03349DC
:1008600028392068884202D14FF400302BE02F490C
:1008700014392068884202D14FF4001023E02B493C
:100880002068884201D180041DE0294920688842FF
:1008900001D1022017E0264914312068884201D195
:1008A000202010E0224928312068884201D14015DB
:1008B00009E01F493C312068884202D14FF40050C2
:1008C00001E04FF4003019498039486000BF002032
:1008D00084F8200000BFA06A30B32046A16A884790
:1008E00022E094F84010082088402840E0B106F04B
:1008F0000800C8B12068006820F00E002168086078
:1009000094F8401001208840E16B48600120A0630A
:1009100084F8210000BF002084F8200000BF206B75
:1009200010B12046216B884770BD00008000024056
:10093000080402400146002209B9012070471E4BFD
:10094000086898420BD21D4B0868C01A1423B0FBEC
:10095000F3F08000086419480838C8630AE0164BB1
:100960000868C01A1423B0FBF3F080000864124832
:100970000838C863022081F821000868026843F63D
:10098000F0708243D1E901031843CB6818430B6927
:1009900018434B6918438B691843CB6918430243CA
:1009A0000868026000208863012081F8210000208F
:1009B00081F8200000BFC1E708040240080002409F
:1009C0002DE9F847024600239C467BE14FF00108E1
:1009D00008FA03F4D1F8008008EA0400A0427DD1AF
:1009E000DFF8F4A2D1F80480A8EB0A09D0453AD088
:1009F00014DCB8F1030F50D009DCB8F1000F31D08E
:100A0000B8F1010F1CD0B8F1020F49D120E0B8F1C4
:100A1000110F18D0B8F1120F42D11EE0B9F5881F9E
:100A200025D006DCB9F5803F20D0B9F5801F37D13D
:100A30001AE0B9F5001F18D0B9F5041F30D117E03E
:100A4000D1F80CC02DE0D1F80C8008F1040C28E09E
:100A5000D1F80C8008F1080C23E0D1F80C8008F1E3
:100A60000C0C1EE000BF00BF00BF00BF00BF00BFF6
:100A7000D1F80880B8F1000F02D14FF0040C0BE060
:100A8000D1F80880B8F1010F03D14FF0080C1461C0
:100A900002E04FF0080C546103E04FF0000C00E05E
:100AA00000BF00BFFF2801D8904601E002F1040812
:100AB0004646FF2802D84FEA830803E0A3F108085E
:100AC0004FEA88084746D6F800804FF00F0909FA28
:100AD00007F928EA09080CFA07F900E07AE048EA81
:100AE0000908C6F80080D1F8048008F08058B8F1F1
:100AF000805F6FD100BFDFF8E481D8F8188048F03C
:100B00000108DFF8D891C9F81880C846D8F81880CD
:100B100008F00108CDF8008000BF00BF4FEAB938E7
:100B20004FEA930958F829504FEA83784FEA187929
:100B30004FF00F0808FA09F825EA0805DFF8A08148
:100B4000424502D14FF0000824E0DFF89881424589
:100B500002D14FF001081DE0DFF88C81424502D13F
:100B60004FF0020816E0DFF88481424502D14FF0D1
:100B700003080FE0DFF87881424502D14FF0040806
:100B800008E0DFF87081424502D14FF0050801E02E
:100B90004FF006084FEA83794FEA197908FA09F805
:100BA00048EA0505DFF850814FEA930948F82950D3
:100BB000D1F8048008F48018B8F5801F0BD1DFF855
:100BC0003C81D8F8008048EA0008DFF83091C9F885
:100BD00000800AE075E0DFF82481D8F8008028EA78
:100BE0000008DFF81891C9F80080D1F8048008F4F3
:100BF0000018B8F5001F0ED1DFF8008108F10408D5
:100C0000D8F8008048EA0008DFF8F09009F10409FC
:100C1000C9F800800DE0DFF8E48008F10408D8F896
:100C2000008028EA0008DFF8D49009F10409C9F827
:100C30000080D1F8048008F40038B8F5003F0ED1E8
:100C4000DFF8B880A8F10408D8F8008048EA000866
:100C5000DFF8A890A9F10409C9F800800DE0DFF8D9
:100C60009C80A8F10408D8F8008028EA0008DFF882
:100C70008C90A9F10409C9F80080D1F8048008F427
:100C80008038B8F5803F0ED1DFF87080A8F10808F1
:100C9000D8F8008048EA0008DFF86090A9F1080958
:100CA000C9F800800DE0DFF85480A8F10808D8F8F2
:100CB000008028EA0008DFF84490A9F10809C9F883
:100CC00000805B1CD1F8008028FA03F8B8F1000F0F
:100CD0007FF47CAEBDE8F8870000111000100240E0
:100CE00000080140000C01400010014000140140C8
:100CF00000180140001C01400800014008040140A8
:100D000001480068704700000000002003480068A8
:100D10000349097808440149086070470000002031
:100D20000800002010B50848006840F0100006498F
:100D30000860032000F0A8F80F2000F007F800F08A
:100D40002BF8002010BD00000020024070B50446C2
:100D50000E4800784FF47A71B1FBF0F00C49096845
:100D6000B1FBF0F5284600F091FC08B1012070BD00
:100D7000102C07D200222146501E00F047F80548EB
:100D8000046001E00120F2E70020F0E70800002005
:100D90000C0000200400002008B500BF1148806945
:100DA00040F001000F4988610846806900F00100A9
:100DB000009000BF00BF00BF0846C06940F08050EF
:100DC000C8610846C06900F08050009000BF00BFB5
:100DD00000BF0549486820F0E06040F000704860BE
:100DE00000BF08BD00100240000001400146084657
:100DF000002809DB00F01F0301229A4043099B00F1
:100E000003F1E023C3F8002100BF70472DE9F05F34
:100E100080460D461646002700F046FE0746394636
:100E20002A46334601F00700C0F1070ABAF1040F61
:100E300002D94FF0040A01E0C0F1070AD14600F1DF
:100E4000040ABAF1070F02D24FF0000A01E0A0F144
:100E5000030AD4464FF0010A0AFA09FAAAF1010A74
:100E60000AEA020A0AFA0CFA4FF0010B0BFA0CFB21
:100E7000ABF1010B0BEA030B4AEA0B042146404697
:100E800000F01AFEBDE8F09F00BF00F00702064B1D
:100E900019684FF6FF031940044B0B4343EA022144
:100EA000014B196000BF70470CED00E00000FA052F
:100EB000F8B5044600260025207800F0010000283F
:100EC0006BD000274348C06900F0805070B900BF64
:100ED0004048C06940F080503E49C8610846C0693A
:100EE00000F08050009000BF00BF01273A48006822
:100EF00000F48070B0B93848006840F4807036491A
:100F00000860FFF7FDFE064606E0FFF7F9FE801BCE
:100F1000642801D90320F8BD2F48006800F48070D0
:100F20000028F2D02B48006A00F440752DB3A08849
:100F300000F44070A84220D02648006A20F4407592
:100F4000012026490860002008602248056205F05B
:100F5000010090B1FFF7D4FE064608E0FFF7D0FE8F
:100F6000801B41F28831884201D90320D3E7194818
:100F7000006A00F002000028F0D01648006A20F451
:100F800040706168084313490862012F04D1084684
:100F9000C06920F08050C86100BF207800F00200D6
:100FA000022807D10B48406820F44040A16808435C
:100FB00008494860207800F01000102807D1054843
:100FC000406820F4800061690843024948600020BD
:100FD000A1E70000001002400070004040044242BF
:100FE00070B504460D460CB9012070BD5A48006822
:100FF00000F00700A8420ED25748006820F0070012
:101000002843554908600846006800F00700A842D8
:1010100001D00120E9E7207800F0020002281DD16C
:10102000207800F00400042805D14C48406840F4C2
:10103000E0604A494860207800F00800082805D19F
:101040004648406840F4605044494860434840681E
:1010500020F0F000A168084340494860207800F083
:10106000010078B36068012806D13C48006800F4AC
:10107000003090B90120B8E76068022806D13748EF
:10108000006800F0007040B90120AEE73348006806
:1010900000F0020008B90120A7E73048406820F0BE
:1010A0000300616808432D494860FFF729FE0646A2
:1010B00009E0FFF725FE801B41F28831884202D902
:1010C000032092E707E02548406800F00C006168C3
:1010D000B0EB810FEDD12048006800F00700A84276
:1010E0000ED91D48006820F0070028431A490860FF
:1010F0000846006800F00700A84201D0012074E70C
:10110000207800F00400042807D11448406820F437
:10111000E060E168084311494860207800F0080069
:10112000082808D10D48406820F46050216940EA41
:10113000C1000A49486000F03FF808494968C1F316
:101140000311074A515CC840064908600648006818
:10115000FFF7FCFD002048E700200240001002409D
:101160002C1B00080C00002004000020014800682F
:10117000704700000C00002000B5FFF7F7FF04499E
:101180004968C1F30221034A515CC84000BD000018
:10119000001002403C1B000800B5FFF7E7FF0449C0
:1011A0004968C1F3C221034A515CC84000BD000038
:1011B000001002403C1B000870B5002100220024F2
:1011C00000230020134D696801F00C05F5B1042DD2
:1011D00002D0082D19D101E00F4819E00F4DC1F3DD
:1011E0008346AB5D01F4803555B10A4D6D68C5F39A
:1011F00040450B4E725D084D5D43B5FBF2F402E0D5
:10120000084D03FB05F4204602E000BF024800BF82
:1012100000BF70BD0010024000127A001A1B0008C7
:101220002A1B000800093D00F8B504460CB901204E
:10123000F8BD207800F00100002878D0F848406818
:1012400000F00C0004280CD0F548406800F00C00B9
:10125000082811D1F248406800F48030B0F5803F92
:101260000AD1EF48006800F4003000285FD06068C1
:1012700000285CD10120DBE700BF6068B0F5803F4B
:1012800006D1E748006840F48030E549086028E06E
:10129000606858B9E248006820F48030E04908608E
:1012A0000846006820F4802008601AE06068B0F505
:1012B000A02F0BD1DA48006840F48020D84908609C
:1012C0000846006840F4803008600AE0D4480068AE
:1012D00020F48030D24908600846006820F480205D
:1012E000086000BF606888B1FFF70AFD054606E0A8
:1012F000FFF706FD401B642801D9032098E7C84882
:10130000006800F400300028F2D010E0FFF7F8FC8D
:10131000054606E0FFF7F4FC401B642801D90320D2
:1013200086E7BF48006800F400300028F2D120783A
:1013300000F00200022857D1B948406800F00C00C4
:1013400050B1B748406800F00C00082818D1B448E4
:10135000406800F4803098B9B148006800F002009D
:1013600020B12069012801D0012061E7AC48006864
:1013700020F0F800616940EAC100A949086033E043
:101380002069E8B10120A7490860FFF7B9FC0546CC
:1013900006E0FFF7B5FC401B022801D9032047E710
:1013A0009F48006800F002000028F2D09C480068C6
:1013B00020F0F800616940EAC1009949086013E033
:1013C000002098490860FFF79BFC054606E0FFF700
:1013D00097FC401B022801D9032029E790480068A8
:1013E00000F002000028F2D1207800F00800082860
:1013F0002DD1A069B8B101208B490860FFF780FCAE
:10140000054606E0FFF77CFC401B022801D90320BB
:101410000EE78348406A00F002000028F2D0012065
:1014200000F066FA13E000207F490860FFF768FCCF
:10143000054606E0FFF764FC401B022801D90320A3
:10144000F6E67748406A00F002000028F2D12078E2
:1014500000F00400042873D100277148C06900F02F
:10146000805070B900BF6E48C06940F080506C4930
:10147000C8610846C06900F08050009000BF00BFFE
:1014800001276A48006800F48070B0B967480068B6
:1014900040F4807065490860FFF732FC054606E0BD
:1014A000FFF72EFC401B642801D90320C0E65F48EB
:1014B000006800F480700028F2D000BFE0680128C6
:1014C00006D15748006A40F001005549086227E0FC
:1014D000E06858B95248006A20F00100504908629B
:1014E0000846006A20F00400086219E0E068052858
:1014F0000BD14B48006A40F0040049490862084695
:10150000006A40F0010008620AE04548006A20F0E5
:101510000100434908620846006A20F0040008629E
:1015200000BFE068A0B1FFF7EBFB054609E0FFF75D
:10153000E7FB401B41F28831884202D9032077E65D
:1015400022E03748006A00F002000028EFD012E0E5
:10155000FFF7D6FB054608E0FFF7D2FB401B41F240
:101560008831884201D9032062E62D48006A00F0E4
:1015700002000028F0D1012F05D12948C06920F0D0
:1015800080502749C86100BFE069C8B3244840685B
:1015900000F00C00082860D0E069022848D1002043
:1015A00020490866FFF7ACFB054606E0FFF7A8FBFD
:1015B000401B022801D903203AE61948006800F0D0
:1015C00000700028F2D1206AB0F5803F07D114489E
:1015D000406820F40030A168084311494860D4E90C
:1015E000080108430E49496821F4741108430C4965
:1015F000486001200B490866FFF782FB054607E0BB
:101600003DE0FFF77DFB401B022801D903200FE6D8
:101610000348006800F000700028F2D02FE00000BE
:10162000001002400000424280044242007000402C
:10163000002014490866FFF763FB054606E0FFF744
:101640005FFB401B022801D90320F1E50E4800682A
:1016500000F000700028F2D111E0E069012800D10B
:10166000E6E50948466806F48031206A814204D1E3
:1016700006F47011606A814201D00120D8E5002093
:10168000D6E50000000042420010024070B504465A
:101690002546681EB0F1807F01D301200FE0681E4F
:1016A0004FF0E02148610F214FF0FF3000F004FAC5
:1016B00000204FF0E021886107200861002070BD04
:1016C00010B504460CB9012010BDA06900B100E0BE
:1016D00000BF94F8410028B9002084F8400020465B
:1016E00000F02AF8242084F841002068C06820F423
:1016F00000502168C860204600F056F92068006953
:1017000020F49040216808612068406920F02A0098
:10171000216848612068C06840F400502168C860B2
:1017200000206064202084F8410084F842000020FA
:10173000606300BFC8E7000010B586B00446002013
:1017400002900390049005901A49206888422ED197
:1017500000BF1948806940F48040174988610846F5
:10176000806900F48040019000BF00BF00BF0846C0
:10177000806940F0040088610846806900F0040038
:10178000019000BF00BF4815029002200390032083
:10179000059002A90948FFF713F94FF48060029001
:1017A00000200390049002A90448FFF709F906B04D
:1017B00010BD000000380140001002400008014048
:1017C00000BFFEE70EB5002000900190029018487F
:1017D00018490860811517488160012101730021B3
:1017E00001754FF46021C161002012494860022157
:1017F00010480161FEF7CAFD08B1FEF714FD0A208A
:101800000090012001900220029069460948FEF7ED
:101810000DFD08B1FEF707FD0C200090022001909D
:1018200069460448FEF702FD08B1FEF7FCFC0EBD58
:10183000002401401000002008B500BF0A4840699C
:1018400040F00100084948610846406900F0010085
:10185000009000BF00BF002211460B20FFF7D6FA10
:101860000B20FFF7C3FA08BD0010024008B500BF07
:101870000D48806940F010000B4988610846806976
:1018800000F01000009000BF00BF00BF0846806954
:1018900040F0040088610846806900F00400009070
:1018A00000BF00BF08BD00000010024010B50B488B
:1018B0000B4908604FF4E13048600021084881601E
:1018C000C16001610C21416100218161C161FFF7AB
:1018D000F7FE08B1FEF7A7FC10BD0000003801407C
:1018E0008400002000BFFEE700BFFEE77047000055
:1018F00008B508490968C9084FF47A72B1FBF2F1DA
:101900004143009100BF00BF00994A1E0092002988
:10191000F9D108BD0C000020704710B5FFF7F6F9AB
:1019200010BD00B595B028210BA8FEF726FC1421A8
:1019300006A8FEF722FC18216846FEF71EFC0120CF
:101940000B9000040C9000200D9001200F900220BD
:101950001290C10313914FF4E01114910BA8FFF7FB
:1019600063FC08B1FEF75FFC0F2006900220079091
:10197000002008904FF48060099000200A90022116
:1019800006A8FFF72DFB08B1FEF74DFC02200090E2
:10199000800302906846FFF78BFA08B1FEF743FC1C
:1019A00015B000BD7047000070B504462168096994
:1019B00021F44051E2681143226811612269A16853
:1019C0001143626941EA02052168C96841F20C626B
:1019D000914329432268D1602168496921F440710B
:1019E000A2691143226851612D4A2168914202D1B6
:1019F000FFF7D2FB01E0FFF7BFFB00EBC00101EBFB
:101A0000001162689200B1FBF2F100EBC00202EB40
:101A1000001263689B00B2FBF3F26423B2FBF3F2A3
:101A200002EBC20303EB0212A1EB8201322202EBB2
:101A300001116422B1FBF2F101F0F00100EBC002F0
:101A400002EB001263689B00B2FBF3F26423B2FB6B
:101A5000F3F201EB021200EBC00101EB001163682D
:101A60009B00B1FBF3F100EBC00303EB00136668CE
:101A7000B600B3FBF6F36426B3FBF6F303EBC30641
:101A800006EB0313A1EB8301322303EB0111642363
:101A9000B1FBF3F101F00F0111442268916070BDB8
:101AA0000038014000BFFEE702480068C0F3022092
:101AB000704700000CED00E010B5002804DB0A07B9
:101AC000130E054A135406E00A07140E034A00F0E9
:101AD0000F031B1FD45410BD00E400E018ED00E01C
:101AE00002E008C8121F08C1002AFAD170477047E7
:101AF000002001E001C1121F002AFBD17047FFF74F
:101B000011F9FFF70EFFFFF7B1FEFFF75BFEFFF7DE
:101B100093FEFFF7CBFE00BFFEE7020304050607B6
:101B200008090A0B0C0D0E0F101001020000000036
:101B3000000000000102030406070809000000007D
:101B400001020304641B00080000002010000000D4
:101B5000E01A0008741B000810000020C0040000F8
:101B6000F01A000800000000100000000100000052
:041B70000024F40059
:0400000508000131BD
:00000001FF
